{
  "contractName": "Verify",
  "abi": [
    {
      "constant": true,
      "inputs": [
        {
          "name": "_message",
          "type": "bytes32"
        },
        {
          "name": "_sig",
          "type": "bytes"
        },
        {
          "name": "_address",
          "type": "address"
        }
      ],
      "name": "validateSignature",
      "outputs": [
        {
          "name": "",
          "type": "bool"
        }
      ],
      "payable": false,
      "stateMutability": "pure",
      "type": "function"
    },
    {
      "constant": true,
      "inputs": [
        {
          "name": "_message",
          "type": "bytes32"
        },
        {
          "name": "_sig",
          "type": "bytes"
        }
      ],
      "name": "recoverSigner",
      "outputs": [
        {
          "name": "",
          "type": "address"
        }
      ],
      "payable": false,
      "stateMutability": "pure",
      "type": "function"
    }
  ],
  "bytecode": "0x608060405234801561001057600080fd5b506103c2806100206000396000f3fe60806040526004361061004c576000357c0100000000000000000000000000000000000000000000000000000000900463ffffffff1680637810e19f1461005157806397aba7f91461015b575b600080fd5b34801561005d57600080fd5b506101416004803603606081101561007457600080fd5b81019080803590602001909291908035906020019064010000000081111561009b57600080fd5b8201836020820111156100ad57600080fd5b803590602001918460018302840111640100000000831117156100cf57600080fd5b91908080601f016020809104026020016040519081016040528093929190818152602001838380828437600081840152601f19601f820116905080830192505050505050509192919290803573ffffffffffffffffffffffffffffffffffffffff16906020019092919050505061026d565b604051808215151515815260200191505060405180910390f35b34801561016757600080fd5b5061022b6004803603604081101561017e57600080fd5b8101908080359060200190929190803590602001906401000000008111156101a557600080fd5b8201836020820111156101b757600080fd5b803590602001918460018302840111640100000000831117156101d957600080fd5b91908080601f016020809104026020016040519081016040528093929190818152602001838380828437600081840152601f19601f8201169050808301925050505050505091929192905050506102b0565b604051808273ffffffffffffffffffffffffffffffffffffffff1673ffffffffffffffffffffffffffffffffffffffff16815260200191505060405180910390f35b60008173ffffffffffffffffffffffffffffffffffffffff1661029085856102c4565b73ffffffffffffffffffffffffffffffffffffffff161490509392505050565b60006102bc83836102c4565b905092915050565b6000806000806102d385610351565b80935081945082955050505060018684848460405160008152602001604052604051808581526020018460ff1660ff1681526020018381526020018281526020019450505050506020604051602081039080840390855afa15801561033c573d6000803e3d6000fd5b50505060206040510351935050505092915050565b60008060006041845114151561036657600080fd5b60008060006020870151925060408701519150606087015160001a9050808383955095509550505050919390925056fea165627a7a7230582009ec67c1177dbd0a7ba87345c1aeb3dcf1677202faf4a86537aa70ef89a5e9640029",
  "source": "pragma solidity ^0.5.0;\n\n/**\n * @title Elliptic curve signature recovery EVM Package\n * @dev Based on https://github.com/OpenZeppelin/openzeppelin-solidity/blob/master/contracts/cryptography/ECDSA.sol\n * @dev Based on https://github.com/pubkey/eth-crypto\n * @dev Adapted by: Dennison Bertram, dennison@dennisonbertram.com, dennison@zeppelin.solutions\n * Easily verify a message was signed by a particlar key, or recover the signing address. \n */\n\ncontract Verify {\n\n    //Public Methods\n\n    //Takes the hash of a message (_message), the signed message (_sig) and the address (_address) expected\n    //to have signed the message. If the message expected to have signed the messsage matches\n    //the supplied (_address), function returns true. Otherwise, returns false. \n    function validateSignature(bytes32 _message, bytes memory _sig, address _address) public pure returns(bool){\n        return (_recoverSigner(_message, _sig) == _address);\n    }\n    \n    //Takes the hash of a message (_message), the signed message (_sig) and returns the public key\n    //of the signing address. \n     function recoverSigner(bytes32 _message, bytes memory _sig) public pure returns (address){\n        return _recoverSigner(_message,_sig);\n    }\n    \n    //Internal Methods\n    function _recoverSigner(bytes32 _message, bytes memory _sig)\n        internal\n        pure\n        returns (address)\n    {\n        uint8 v;\n        bytes32 r;\n        bytes32 s;\n\n        (v, r, s) = _splitSignature(_sig);\n\n        return ecrecover(_message, v, r, s);\n    }\n    \n    function _splitSignature(bytes memory _sig)\n        internal \n        pure\n        returns (uint8, bytes32, bytes32)\n    {\n        require(_sig.length == 65);\n\n        bytes32 r;\n        bytes32 s;\n        uint8 v;\n\n        assembly {\n            // first 32 bytes, after the length prefix\n            r := mload(add(_sig, 32))\n            // second 32 bytes\n            s := mload(add(_sig, 64))\n            // final byte (first byte of the next 32 bytes)\n            v := byte(0, mload(add(_sig, 96)))\n        }\n\n        return (v, r, s);\n    }\n    \n    \n}",
  "sourcePath": "/Users/dennisonzeppelin/Documents/zos-ecrecover/contracts/ecrecover.sol",
  "compiler": {
    "name": "solc",
    "version": "0.5.0+commit.1d4f565a.Emscripten.clang"
  },
  "schemaVersion": "3.0.1",
  "updatedAt": "2019-02-24T16:48:04.282Z",
  "devdoc": {
    "details": "Based on https://github.com/OpenZeppelin/openzeppelin-solidity/blob/master/contracts/cryptography/ECDSA.solBased on https://github.com/pubkey/eth-cryptoAdapted by: Dennison Bertram, dennison@dennisonbertram.com, dennison@zeppelin.solutions Easily verify a message was signed by a particlar key, or recover the signing address. ",
    "methods": {},
    "title": "Elliptic curve signature recovery EVM Package"
  },
  "userdoc": {
    "methods": {}
  }
}